{"abi":[{"type":"constructor","inputs":[],"stateMutability":"nonpayable"},{"type":"function","name":"addRenter","inputs":[{"name":"walletAddress","type":"address","internalType":"address payable"},{"name":"firstName","type":"string","internalType":"string"},{"name":"lastName","type":"string","internalType":"string"},{"name":"canRent","type":"bool","internalType":"bool"},{"name":"active","type":"bool","internalType":"bool"},{"name":"balance","type":"uint256","internalType":"uint256"},{"name":"due","type":"uint256","internalType":"uint256"},{"name":"start","type":"uint256","internalType":"uint256"},{"name":"end","type":"uint256","internalType":"uint256"}],"outputs":[],"stateMutability":"nonpayable"},{"type":"function","name":"balanceOf","inputs":[],"outputs":[{"name":"","type":"uint256","internalType":"uint256"}],"stateMutability":"view"},{"type":"function","name":"balanceOfRenter","inputs":[{"name":"walletAddress","type":"address","internalType":"address"}],"outputs":[{"name":"","type":"uint256","internalType":"uint256"}],"stateMutability":"view"},{"type":"function","name":"canRentBike","inputs":[{"name":"walletAddress","type":"address","internalType":"address"}],"outputs":[{"name":"","type":"bool","internalType":"bool"}],"stateMutability":"view"},{"type":"function","name":"checkIn","inputs":[{"name":"walletAddress","type":"address","internalType":"address"}],"outputs":[],"stateMutability":"nonpayable"},{"type":"function","name":"checkOut","inputs":[{"name":"walletAddress","type":"address","internalType":"address"}],"outputs":[],"stateMutability":"nonpayable"},{"type":"function","name":"deposit","inputs":[{"name":"walletAddress","type":"address","internalType":"address"}],"outputs":[],"stateMutability":"payable"},{"type":"function","name":"getDue","inputs":[{"name":"walletAddress","type":"address","internalType":"address"}],"outputs":[{"name":"","type":"uint256","internalType":"uint256"}],"stateMutability":"view"},{"type":"function","name":"getRenter","inputs":[{"name":"walletAddress","type":"address","internalType":"address"}],"outputs":[{"name":"firstName","type":"string","internalType":"string"},{"name":"lastName","type":"string","internalType":"string"},{"name":"canRent","type":"bool","internalType":"bool"},{"name":"active","type":"bool","internalType":"bool"}],"stateMutability":"view"},{"type":"function","name":"getTotalDuration","inputs":[{"name":"walletAddress","type":"address","internalType":"address"}],"outputs":[{"name":"","type":"uint256","internalType":"uint256"}],"stateMutability":"view"},{"type":"function","name":"makePayment","inputs":[{"name":"walletAddress","type":"address","internalType":"address"}],"outputs":[],"stateMutability":"payable"},{"type":"function","name":"renterExists","inputs":[{"name":"walletAddress","type":"address","internalType":"address"}],"outputs":[{"name":"","type":"bool","internalType":"bool"}],"stateMutability":"view"},{"type":"function","name":"renters","inputs":[{"name":"","type":"address","internalType":"address"}],"outputs":[{"name":"walletAddress","type":"address","internalType":"address payable"},{"name":"firstName","type":"string","internalType":"string"},{"name":"lastName","type":"string","internalType":"string"},{"name":"canRent","type":"bool","internalType":"bool"},{"name":"active","type":"bool","internalType":"bool"},{"name":"balance","type":"uint256","internalType":"uint256"},{"name":"due","type":"uint256","internalType":"uint256"},{"name":"start","type":"uint256","internalType":"uint256"},{"name":"end","type":"uint256","internalType":"uint256"}],"stateMutability":"view"}],"bytecode":{"object":"0x6080604052348015600f57600080fd5b50600080546001600160a01b03191633179055610fcf806100316000396000f3fe6080604052600436106100c25760003560e01c8063722713f71161007f578063c6d2a84611610059578063c6d2a8461461024c578063d9a59e3314610285578063f340fa01146102a5578063f9d8241c146102b857600080fd5b8063722713f7146101e05780638d23caa0146101f3578063aad1b6171461021357600080fd5b80630b88adbe146100c7578063300be4fc1461011857806341ba6e891461012d5780635e6497271461015b578063644a13701461017b5780636a4b27f4146101b0575b600080fd5b3480156100d357600080fd5b506101036100e2366004610b51565b6001600160a01b031660009081526001602052604090206003015460ff1690565b60405190151581526020015b60405180910390f35b61012b610126366004610b51565b6102d8565b005b34801561013957600080fd5b5061014d610148366004610b51565b61041c565b60405190815260200161010f565b34801561016757600080fd5b5061012b610176366004610c2a565b6104b3565b34801561018757600080fd5b5061019b610196366004610b51565b6105b7565b60405161010f99989796959493929190610d32565b3480156101bc57600080fd5b506101d06101cb366004610b51565b610720565b60405161010f9493929190610d9e565b3480156101ec57600080fd5b504761014d565b3480156101ff57600080fd5b5061012b61020e366004610b51565b6108b3565b34801561021f57600080fd5b5061014d61022e366004610b51565b6001600160a01b031660009081526001602052604090206004015490565b34801561025857600080fd5b5061014d610267366004610b51565b6001600160a01b031660009081526001602052604090206005015490565b34801561029157600080fd5b5061012b6102a0366004610b51565b6109c3565b61012b6102b3366004610b51565b610a71565b3480156102c457600080fd5b506101036102d3366004610b51565b610aa4565b6001600160a01b0381166000908152600160205260409020600501546103455760405162461bcd60e51b815260206004820152601f60248201527f596f7520646f206e6f74206861766520612064756520746869732074696d650060448201526064015b60405180910390fd5b6001600160a01b03811660009081526001602052604090206004015434106103af5760405162461bcd60e51b815260206004820152601e60248201527f596f7520646f206e6f74206861766520656e6f7567682062616c616e63650000604482015260640161033c565b6001600160a01b038116600090815260016020526040812060040180543492906103da908490610df2565b90915550506001600160a01b03166000908152600160208190526040822060038101805460ff1916909217909155600581018290556006810182905560070155565b6001600160a01b038116600090815260016020526040812060060154158061045d57506001600160a01b038216600090815260016020526040902060070154155b1561046a57506000919050565b6001600160a01b038216600090815260016020526040812060068101546007909101546104979190610ad6565b905060006104a6603c83610e05565b949350505050565b919050565b60408051610120810182526001600160a01b038b811680835260208084018d81528486018d90528b151560608601528a1515608086015260a085018a905260c0850189905260e085018890526101008501879052600092835260019182905294909120835181546001600160a01b0319169316929092178255925191929091908201906105409082610eb0565b50604082015160028201906105559082610eb0565b506060820151600382018054608085015161ffff1990911692151561ff00191692909217610100921515830217905560a0830151600483015560c0830151600583015560e0830151600683015590910151600790910155505050505050505050565b6001602081905260009182526040909120805491810180546001600160a01b03909316926105e490610e27565b80601f016020809104026020016040519081016040528092919081815260200182805461061090610e27565b801561065d5780601f106106325761010080835404028352916020019161065d565b820191906000526020600020905b81548152906001019060200180831161064057829003601f168201915b50505050509080600201805461067290610e27565b80601f016020809104026020016040519081016040528092919081815260200182805461069e90610e27565b80156106eb5780601f106106c0576101008083540402835291602001916106eb565b820191906000526020600020905b8154815290600101906020018083116106ce57829003601f168201915b5050506003840154600485015460058601546006870154600790970154959660ff808516976101009095041695509193509189565b60608060008060016000866001600160a01b03166001600160a01b03168152602001908152602001600020600101805461075990610e27565b80601f016020809104026020016040519081016040528092919081815260200182805461078590610e27565b80156107d25780601f106107a7576101008083540402835291602001916107d2565b820191906000526020600020905b8154815290600101906020018083116107b557829003601f168201915b505050506001600160a01b03871660009081526001602052604090206002018054929650916108019150610e27565b80601f016020809104026020016040519081016040528092919081815260200182805461082d90610e27565b801561087a5780601f1061084f5761010080835404028352916020019161087a565b820191906000526020600020905b81548152906001019060200180831161085d57829003601f168201915b5050506001600160a01b0390971660009081526001602052604090206003015495979196505060ff808616956101009004169350915050565b6001600160a01b0381166000908152600160205260409020600501541561091c5760405162461bcd60e51b815260206004820152601b60248201527f596f75206861766520612070656e64696e672042616c616e63652e0000000000604482015260640161033c565b6001600160a01b03811660009081526001602081905260409091206003015460ff1615151461098d5760405162461bcd60e51b815260206004820152601d60248201527f596f752063616e6e6f742072656e7420617420746869732074696d652e000000604482015260640161033c565b6001600160a01b031660009081526001602052604090206003810180544260069093019290925561ffff19909116610100179055565b6001600160a01b038116600090815260016020819052604090912060030154610100900460ff16151514610a395760405162461bcd60e51b815260206004820152601d60248201527f506c6561736520636865636b206f757420612062696b65206669727374000000604482015260640161033c565b6001600160a01b038116600090815260016020526040902060038101805461ff001916905542600790910155610a6e81610aeb565b50565b6001600160a01b03811660009081526001602052604081206004018054349290610a9c908490610f6f565b909155505050565b6001600160a01b0381811660009081526001602052604081205490911615610ace57506001919050565b506000919050565b6000610ae28383610df2565b90505b92915050565b6000610af68261041c565b90506000610b05600583610e05565b9050610b18816601c6bf52634000610f82565b6001600160a01b039093166000908152600160205260409020600501929092555050565b6001600160a01b0381168114610a6e57600080fd5b600060208284031215610b6357600080fd5b8135610b6e81610b3c565b9392505050565b634e487b7160e01b600052604160045260246000fd5b600082601f830112610b9c57600080fd5b813567ffffffffffffffff811115610bb657610bb6610b75565b604051601f8201601f19908116603f0116810167ffffffffffffffff81118282101715610be557610be5610b75565b604052818152838201602001851015610bfd57600080fd5b816020850160208301376000918101602001919091529392505050565b803580151581146104ae57600080fd5b60008060008060008060008060006101208a8c031215610c4957600080fd5b8935610c5481610b3c565b985060208a013567ffffffffffffffff811115610c7057600080fd5b610c7c8c828d01610b8b565b98505060408a013567ffffffffffffffff811115610c9957600080fd5b610ca58c828d01610b8b565b975050610cb460608b01610c1a565b9550610cc260808b01610c1a565b989b979a50959894979660a0860135965060c08601359560e0810135955061010001359350915050565b6000815180845260005b81811015610d1257602081850181015186830182015201610cf6565b506000602082860101526020601f19601f83011685010191505092915050565b6001600160a01b038a16815261012060208201819052600090610d579083018b610cec565b8281036040840152610d69818b610cec565b98151560608401525050941515608086015260a085019390935260c084019190915260e0830152610100909101529392505050565b608081526000610db16080830187610cec565b8281036020840152610dc38187610cec565b9415156040840152505090151560609091015292915050565b634e487b7160e01b600052601160045260246000fd5b81810381811115610ae557610ae5610ddc565b600082610e2257634e487b7160e01b600052601260045260246000fd5b500490565b600181811c90821680610e3b57607f821691505b602082108103610e5b57634e487b7160e01b600052602260045260246000fd5b50919050565b601f821115610eab57806000526020600020601f840160051c81016020851015610e885750805b601f840160051c820191505b81811015610ea85760008155600101610e94565b50505b505050565b815167ffffffffffffffff811115610eca57610eca610b75565b610ede81610ed88454610e27565b84610e61565b6020601f821160018114610f125760008315610efa5750848201515b600019600385901b1c1916600184901b178455610ea8565b600084815260208120601f198516915b82811015610f425787850151825560209485019460019092019101610f22565b5084821015610f605786840151600019600387901b60f8161c191681555b50505050600190811b01905550565b80820180821115610ae557610ae5610ddc565b8082028115828204841417610ae557610ae5610ddc56fea2646970667358221220b8c0afdbd21b8a7e8b36da7b6a45c694c713528b8a1a8bfea70e6c1de11002a564736f6c634300081b0033","linkReferences":{}},"methodIdentifiers":{"addRenter(address,string,string,bool,bool,uint256,uint256,uint256,uint256)":"5e649727","balanceOf()":"722713f7","balanceOfRenter(address)":"aad1b617","canRentBike(address)":"0b88adbe","checkIn(address)":"d9a59e33","checkOut(address)":"8d23caa0","deposit(address)":"f340fa01","getDue(address)":"c6d2a846","getRenter(address)":"6a4b27f4","getTotalDuration(address)":"41ba6e89","makePayment(address)":"300be4fc","renterExists(address)":"f9d8241c","renters(address)":"644a1370"},"id":0}